:020000040800F2
:10000000901800201D0200086124000885210008C6
:100010005D24000877070008314500080000000053
:10002000000000000000000000000000B9350008DA
:100030007B0700080000000065240008414100081B
:1000400037020008370200083702000837020008AC
:10005000370200083702000837020008370200089C
:1000600037020008370200087D0700083702000841
:10007000370200083702000837020008370200087C
:10008000370200083702000837020008370200086C
:10009000370200083702000837020008370200085C
:1000A000370200083702000837020008370200084C
:1000B000370200083702000837020008370200083C
:1000C000370200083702000837020008370200082C
:1000D00037020008214500083702000837020008EF
:1000E000370200083702000837020008370200080C
:1000F00037020008370200083702000837020008FC
:1001000037020008370200083702000837020008EB
:1001100037020008370200083702000837020008DB
:1001200037020008370200083702000837020008CB
:1001300000F002F800F062F80AA090E8000C824497
:100140008344AAF10107DA4501D100F057F8AFF274
:10015000090EBAE80F0013F0010F18BFFB1A43F0A5
:100160000103184710B1000030B100000A444FF0FD
:10017000000C10F8013B13F0070408BF10F8014B06
:100180001D1108BF10F8015B641E05D010F8016B4B
:10019000641E01F8016BF9D113F0080F1EBF10F8AF
:1001A000014BAD1C0C1B09D16D1E58BF01F801CBD2
:1001B000FAD505E014F8016B01F8016B6D1EF9D555
:1001C0009142D6D37047000000230024002500266A
:1001D000103A28BF78C1FBD8520728BF30C148BFAA
:1001E0000B607047632900F04082732900F045825C
:1001F000002070471FB51FBD10B510BD00F086FA76
:100200001146FFF7F7FF07F0F3F800F0A4FA03B484
:10021000FFF7F2FF03BC00F0A7FA0000094880478F
:1002200009480047FEE7FEE7FEE7FEE7FEE7FEE7D8
:10023000FEE7FEE7FEE7FEE704480549054A064BF0
:1002400070470000BF4100083101000890120020F3
:10025000901800209014002090140020B2F1200388
:100260000AD5C2F1200320FA02F001FA03F321FAC1
:1002700002F140EA0300704721FA03F04FF0000159
:10028000704700000FB41CB5074B06AA7B446946B3
:100290000090059800F0C7F90020694600F0D6F9F3
:1002A0001CBC5DF814FB0000BD0300002DE9F0410B
:1002B0000E460446002020622046E168884730B39D
:1002C000252805D0D4E901219047206A401CF2E797
:1002D000E168204600278847050018D0A5F14100B5
:1002E000192802D820354FF40067324629462046A7
:1002F0002760FFF777FF40B1012804D0F61D26F0F4
:1003000007060836D8E7361DD6E72846DAE7206A1A
:10031000BDE8F08170B50C460546012A05D0287865
:10032000800600D5EA69002302E0012305E05B1C9A
:10033000934202D2E05C0028F9D1A869E618C01AFD
:10034000A861286A184428622846AFF3008004E0B8
:10035000D5E9012114F8010B9047B442F8D328469F
:10036000AFF3008070BD40EA010310B59B070FD1C9
:10037000042A0DD310C808C9121F9C42F8D020BA15
:1003800019BA884201D9012010BD4FF0FF3010BDCD
:100390001AB1D30703D0521C07E0002010BD10F89B
:1003A000013B11F8014B1B1B07D110F8013B11F861
:1003B000014B1B1B01D1921EF1D1184610BD10B587
:1003C000431C02E010F8011B71B18107FAD14FF014
:1003D000013202C88C1A8C4314EAC211F9D0C01A37
:1003E0000A0603D0C01E10BDC01A10BD0A0401D0F9
:1003F000801E10BD0902FCD0401E10BD032A40F231
:10040000308010F0030C00F0158011F8013BBCF1B6
:10041000020F624498BF11F801CB00F8013B38BFCE
:1004200011F8013BA2F1040298BF00F801CB38BFDC
:1004300000F8013B11F0030300F06780083AC0F0B8
:10044000088051F8043B083A51F804CBA0E80810A2
:10045000F5E7121D5CBF51F8043B40F8043BAFF3D5
:100460000080D20724BF11F8013B11F801CB48BF2F
:1004700011F8012B24BF00F8013B00F801CB48BF65
:1004800000F8012B7047431A28BF9A427FF6B6AF97
:10049000032A1044114440F2268010F0030F1EBFBF
:1004A00011F8013D521E00F8013D10F0030F7FF4DA
:1004B000F6AF11F0030300F0F780083AC0F00B80AC
:1004C00051F8043D083A51F804CD40F8043D40F895
:1004D00004CDFFF7F3BF121D5CBF51F8043D40F897
:1004E000043DAFF30080D20724BF11F8013D11F89D
:1004F00001CD48BF11F8012C24BF00F8013D00F8E0
:1005000001CD48BF00F8012C704710B5203AC0F06B
:100510000B80B1E81850203AA0E81850B1E8185004
:10052000A0E81850BFF4F5AF5FEA027C24BFB1E841
:100530001850A0E8185044BF18C918C0BDE81040B2
:100540005FEA827C24BF51F8043B40F8043B08BFBB
:100550007047D20728BF31F8023B48BF11F8012B82
:1005600028BF20F8023B48BF00F8012B70474FF02E
:1005700000020429C0F0128010F0030C00F01B8070
:10058000CCF1040CBCF1020F18BF00F8012BA8BF7E
:1005900020F8022BA1EB0C0100F00DB85FEAC17C42
:1005A00024BF00F8012B00F8012B48BF00F8012BF5
:1005B00070474FF0000200B5134694469646203926
:1005C00022BFA0E80C50A0E80C50B1F12001BFF40C
:1005D000F7AF090728BFA0E80C5048BF0CC05DF872
:1005E00004EB890028BF40F8042B08BF704748BFC0
:1005F00020F8022B11F0804F18BF00F8012B704734
:1006000070477047704710B500F07CF8006810BD67
:1006100010B5044600F076F8046010BD01694A1C6C
:1006200002610878704700B58FB0CDE90131002133
:10063000059105497944CDE9031011466846FFF755
:1006400035FE0FB000BD0000E5FFFFFF0A6802F8AD
:10065000010B0A60704710B5436913B1AFF3008016
:1006600001E0FFF757FE012010BD127800F12401D0
:100670000A7000224A700122EDE711684FF0FF3244
:10068000E9E7431A28BF9A427FF63FAF104410F0C3
:10069000030F11441EBF11F8013D521E00F8013D29
:1006A00010F0030F7FF4F6AF103AC0F00A8010B5D7
:1006B00031E91850103A20E91850BFF4F9AFBDE8FD
:1006C0001040530724BF31E9081020E9081044BF47
:1006D00051F8043D40F8043D12F0030F08BF704785
:1006E000D20728BF31F8023D48BF11F8012C28BFBE
:1006F00020F8023D48BF00F8012C704700487047C1
:100700003012002000487047301200207546FFF775
:10071000F5FFAE4605006946534620F007008546C2
:1007200018B020B5FFF788FDBDE820404FF0000667
:100730004FF000074FF000084FF0000B21F00701C9
:10074000AC46ACE8C009ACE8C009ACE8C009ACE80C
:10075000C0098D46704710B50446AFF300802046AF
:10076000BDE81040FFF753BD01491820ABBEFEE7BE
:1007700026000200704700BFFEE7704710B510204A
:1007800000F0A2FA10BD72B600BFFEE70021074AD2
:10079000D1610749096941F00401054A1161114617
:1007A000096941F0400111617047000038030020E1
:1007B000002002400021074AD1610749096941F040
:1007C0000201054A116111464861096941F0400181
:1007D0001161704738030020002002400022054BC1
:1007E000DA61054A126942F00102034B1A61018085
:1007F00070470000380300200020024000201E49FE
:10080000C96801F0100139B11C49C96941F0020100
:100810001A4AD16140F010001749C96801F004017B
:1008200039B11649C96941F00101144AD16140F05A
:1008300004001149C96901F0010169B10F49C96991
:1008400041F004010D4AD16100BF0B49C96921F093
:100850000101094AD16100BF00BF40F20111884285
:1008600006D10549C96921F00101034AD16101E0BE
:100870000149C86000BF70470020024038030020D3
:1008800070B5044600F0DCFB054609E0601C38B199
:1008900024B100F0D5FB401BA04201D9032070BD5C
:1008A0001248C06800F001000028EFD10F48C0686E
:1008B00000F0200020B100BF20200C49C86000BF1C
:1008C0000A48C06800F0100048B90848C06900F044
:1008D000010020B90548C06800F0040018B1FFF716
:1008E0008DFF0120DBE70020D9E700000020024057
:1008F0000146002291F82100022808D004208863D4
:1009000000BF002081F8200000BF01207047086868
:10091000006820F00E000B6818600868006820F07E
:1009200001000B68186091F8403001209840CB6BB3
:100930005860012081F8210000BF002081F82000CC
:1009400000BF1046E2E7000070B50446002594F8A9
:100950002100022803D00420A0630125C1E0206803
:10096000006820F00E00216808602068006820F010
:100970000100216808605C492068884252D95A49C0
:1009800078392068884201D1012047E0564964390E
:100990002068884201D1102040E053495039206836
:1009A000884201D1801539E04F493C39206888429E
:1009B00001D1801432E04C4928392068884202D1A4
:1009C0004FF480302AE0484914392068884202D127
:1009D0004FF4801022E044492068884201D140044D
:1009E0001CE042492068884201D1012016E03F49BD
:1009F00014312068884201D110200FE03B49283192
:100A00002068884201D1801508E038493C312068CF
:100A1000884201D1801401E04FF480303349091F2E
:100A2000086051E0304978392068884201D10120BE
:100A300047E02D4964392068884201D1102040E008
:100A4000294950392068884201D1801539E026496A
:100A50003C392068884201D1801432E0224928398B
:100A60002068884202D14FF480302AE01E491439B0
:100A70002068884202D14FF4801022E01A49206891
:100A8000884201D140041CE018492068884201D105
:100A9000012016E0154914312068884201D1102048
:100AA0000FE0124928312068884201D1801508E002
:100AB0000E493C312068884201D1801401E04FF496
:100AC0008030094980394860012084F8210000BF46
:100AD000002084F8200000BF606B10B12046616BDD
:100AE0008847284670BD000080000240080402408C
:100AF00070B5044600F0A4FA06462546681C10B1FD
:100B000004480078054400BF00F09AFA801BA84210
:100B1000FAD370BD080000202DE9F04104460E46CE
:100B20000127002500BF2648007E012802D10220AF
:100B3000BDE8F08101202249087600BF2068022824
:100B400013D14CF25030FFF79BFE90BB0120FFF712
:100B50001DFE4CF25030FFF793FE0746194800691E
:100B600020F004001749086123E04CF25030FFF7F1
:100B700087FEF0B94FF0FF303060A56812E02846DC
:100B8000FFF718FE4CF25030FFF77AFE07460D488B
:100B9000006920F002000B4908610FB1356007E0E1
:100BA00005F50065D4E9021001EBC020A842E6D8A3
:100BB00000BF00BF00200249087600BF3846B7E7F3
:100BC00038030020002002400348006940F0800004
:100BD0000149086100207047002002402DE9FE4FC6
:100BE00005468B46174698460126002400200290B1
:100BF00000BF2448007E012802D10220BDE8FE8FFC
:100C000001202049087600BF4CF25030FFF738FE33
:100C1000064686BB012D02D10120029006E0022D7E
:100C200002D10220029001E00420029000241EE084
:100C30002201B946C24648465146FFF70FFB80B233
:100C40000190022000FB04B000900199FFF7C6FD5F
:100C50004CF25030FFF714FE06460B48006920F0B6
:100C600001000949086106B104E0601CC4B20298A1
:100C70008442DDDB00BF00BF00200249087600BFD0
:100C80003046BBE73803002000200240002008491E
:100C9000096901F0800151B10649054A51600649D0
:100CA00051601146096901F0800101B101207047CE
:100CB0000020024023016745AB89EFCD10B5044603
:100CC00001F088FE10BD000010B50446044800681D
:100CD000204020B1024804602046FFF7EFFF10BD1E
:100CE000140401402DE9F847024600239C467BE1AD
:100CF0004FF0010808FA03F4D1F8008008EA040074
:100D0000A0427DD1DFF8F4A2D1F80480A8EB0A0953
:100D1000D0453AD014DCB8F1030F50D009DCB8F15B
:100D2000000F31D0B8F1010F1CD0B8F1020F49D13A
:100D300020E0B8F1110F18D0B8F1120F42D11EE027
:100D4000B9F5881F25D006DCB9F5803F20D0B9F56C
:100D5000801F37D11AE0B9F5001F18D0B9F5041F6C
:100D600030D117E0D1F80CC02DE0D1F80C8008F19B
:100D7000040C28E0D1F80C8008F1080C23E0D1F82D
:100D80000C8008F10C0C1EE000BF00BF00BF00BFCC
:100D900000BF00BFD1F80880B8F1000F02D14FF0BA
:100DA000040C0BE0D1F80880B8F1010F03D14FF02B
:100DB000080C146102E04FF0080C546103E04FF09E
:100DC000000C00E000BF00BFFF2801D8904601E002
:100DD00002F104084646FF2802D84FEA830803E0E0
:100DE000A3F108084FEA88084746D6F800804FF07C
:100DF0000F0909FA07F928EA09080CFA07F900E0CF
:100E00007AE048EA0908C6F80080D1F8048008F0C2
:100E10008058B8F1805F6FD100BFDFF8E481D8F867
:100E2000188048F00108DFF8D891C9F81880C84642
:100E3000D8F8188008F00108CDF8008000BF00BF86
:100E40004FEAB9384FEA930958F829504FEA8378A6
:100E50004FEA18794FF00F0808FA09F825EA080553
:100E6000DFF8A081424502D14FF0000824E0DFF80E
:100E70009881424502D14FF001081DE0DFF88C81D6
:100E8000424502D14FF0020816E0DFF88481424566
:100E900002D14FF003080FE0DFF87881424502D11C
:100EA0004FF0040808E0DFF87081424502D14FF0AE
:100EB000050801E04FF006084FEA83794FEA1979F7
:100EC00008FA09F848EA0505DFF850814FEA930966
:100ED00048F82950D1F8048008F48038B8F5803FEC
:100EE0000BD1DFF83C81D8F8008048EA0008DFF831
:100EF0003091C9F800800AE075E0DFF82481D8F865
:100F0000008028EA0008DFF81891C9F80080D1F8BD
:100F1000048008F40038B8F5003F0ED1DFF80081F6
:100F200008F10408D8F8008048EA0008DFF8F090DB
:100F300009F10409C9F800800DE0DFF8E48008F148
:100F40000408D8F8008028EA0008DFF8D49009F1F6
:100F50000409C9F80080D1F8048008F48018B8F5B5
:100F6000801F0ED1DFF8B88008F10808D8F800809B
:100F700048EA0008DFF8A89009F10809C9F80080DC
:100F80000DE0DFF89C8008F10808D8F8008028EA16
:100F90000008DFF88C9009F10809C9F80080D1F841
:100FA000048008F40018B8F5001F0ED1DFF8708037
:100FB00008F10C08D8F8008048EA0008DFF86090D3
:100FC00009F10C09C9F800800DE0DFF8548008F140
:100FD0000C08D8F8008028EA0008DFF8449009F1EE
:100FE0000C09C9F800805B1CD1F8008028FA03F8CE
:100FF000B8F1000F7FF47CAEBDE8F8870000111057
:101000000010024000080140000C014000100140A7
:101010000014014000180140001C0140080001407C
:1010200000040140024693680B400BB1012000E030
:10103000002070470AB1016101E00B0403617047B1
:101040000148006870470000000000200148006867
:1010500070470000E8F7FF1F014800687047000074
:10106000ECF7FF1F70B504460CB9012070BD4CF6BB
:10107000CC402168086045F2555021680860D4E9E9
:10108000001048602168A0688860FFF7D9FF054616
:101090000BE0FFF7D5FF401B272806D92068C06862
:1010A00000F0030008B10320E0E72068C06800F00A
:1010B00003000028EDD14AF6AA202168086000202C
:1010C000D4E701464AF6AA200A681060002070475B
:1010D00003480068034909780844014908607047DB
:1010E000000000200800002010B50848006840F00B
:1010F000100006490860032000F0A8F80F2000F057
:1011000007F800F02BF8002010BD0000002002407E
:1011100070B504460E4800784FF47A71B1FBF0F0D8
:101120000C490968B1FBF0F5284600F0C2FD08B192
:10113000012070BD102C07D200222146501E00F065
:1011400047F80548046001E00120F2E70020F0E7DD
:10115000080000200C0000200400002008B500BF9B
:101160001148806940F001000F4988610846806994
:1011700000F00100009000BF00BF00BF0846C0693A
:1011800040F08050C8610846C06900F0805000906F
:1011900000BF00BF00BF0549486820F0E06040F094
:1011A0000070486000BF08BD001002400000014010
:1011B00001460846002809DB00F01F0301229A407F
:1011C00043099B0003F1E023C3F8002100BF7047EF
:1011D0002DE9F05F80460D461646002703F06CFAB5
:1011E000074639462A46334601F00700C0F1070A90
:1011F000BAF1040F02D94FF0040A01E0C0F1070A66
:10120000D14600F1040ABAF1070F02D24FF0000AEA
:1012100001E0A0F1030AD4464FF0010A0AFA09FAE4
:10122000AAF1010A0AEA020A0AFA0CFA4FF0010BC3
:101230000BFA0CFBABF1010B0BEA030B4AEA0B04B4
:101240002146404603F040FABDE8F09F00BF00F0A1
:101250000702064B19684FF6FF031940044B0B4376
:1012600043EA0221014B196000BF70470CED00E01A
:101270000000FA0570B504460D460CB9012070BD9A
:101280005A48006800F00700A8420ED2574800688C
:1012900020F007002843554908600846006800F020
:1012A0000700A84201D00120E9E7207800F0020001
:1012B00002281DD1207800F00400042805D14C48F4
:1012C000406840F4E0604A494860207800F0080037
:1012D000082805D14648406840F4605044494860B9
:1012E0004348406820F0F000A16808434049486046
:1012F000207800F0010078B36068012806D13C48EE
:10130000006800F4003090B90120B8E76068022856
:1013100006D13748006800F0007040B90120AEE700
:101320003348006800F0020008B90120A7E7304800
:10133000406820F00300616808432D494860FFF7CA
:101340007FFE064609E0FFF77BFE801B41F28831F5
:10135000884202D9032092E707E02548406800F060
:101360000C006168B0EB810FEDD12048006800F0FF
:101370000700A8420ED91D48006820F00700284346
:101380001A4908600846006800F00700A84201D02A
:10139000012074E7207800F00400042807D11448E5
:1013A000406820F4E060E168084311494860207813
:1013B00000F00800082808D10D48406820F460506B
:1013C000216940EAC1000A49486000F03FF8084935
:1013D0004968C1F30311074A515CC84006490860D7
:1013E00006480068FFF794FE002048E7002002400E
:1013F0000010024078A800080C0000200400002023
:1014000001480068704700000C00002000B5FFF79D
:10141000F7FF04494968C1F30221034A515CC840FF
:1014200000BD00000010024088A8000800B5FFF7CA
:10143000E7FF04494968C1F3C221034A515CC8402F
:1014400000BD00000010024088A80008F0B585B07B
:101450000FF26C0C9CE8E01001A8A0E8E0101CA5BD
:101460002D68009500210022002300240020194D42
:10147000696801F00C05F5B1042D02D0082D19D1D1
:1014800001E0154819E001ADC1F38346AC5D01F4FC
:10149000803555B10F4D6D68C5F340451DF80520E9
:1014A0000D4D6543B5FBF2F302E00C4D04FB05F373
:1014B000184602E000BF084800BF00BF05B0F0BDFD
:1014C00002030405060708090A0B0C0D0E0F101085
:1014D000010200000010024000127A0000093D00E5
:1014E000F8B504460CB90120F8BD207800F00100E1
:1014F000002878D0F848406800F00C0004280CD090
:10150000F548406800F00C00082811D1F248406806
:1015100000F48030B0F5803F0AD1EF48006800F455
:10152000003000285FD0606800285CD10120DBE734
:1015300000BF6068B0F5803F06D1E748006840F41E
:101540008030E549086028E0606858B9E2480068E2
:1015500020F48030E04908600846006820F48020CC
:1015600008601AE06068B0F5A02F0BD1DA48006877
:1015700040F48020D84908600846006840F4803074
:1015800008600AE0D448006820F48030D24908603E
:101590000846006820F48020086000BF606888B1B9
:1015A000FFF74EFD054606E0FFF74AFD401B6428A5
:1015B00001D9032098E7C848006800F400300028EB
:1015C000F2D010E0FFF73CFD054606E0FFF738FDDE
:1015D000401B642801D9032086E7BF48006800F457
:1015E00000300028F2D1207800F00200022857D104
:1015F000B948406800F00C0050B1B748406800F0AE
:101600000C00082818D1B448406800F4803098B91C
:10161000B148006800F0020020B12069012801D023
:10162000012061E7AC48006820F0F800616940EAF9
:10163000C100A949086033E02069E8B10120A74949
:101640000860FFF7FDFC054606E0FFF7F9FC401BCC
:10165000022801D9032047E79F48006800F00200F4
:101660000028F2D09C48006820F0F800616940EA48
:10167000C1009949086013E0002098490860FFF70D
:10168000DFFC054606E0FFF7DBFC401B022801D922
:10169000032029E79048006800F002000028F2D1FA
:1016A000207800F0080008282DD1A069B8B10120E9
:1016B0008B490860FFF7C4FC054606E0FFF7C0FC55
:1016C000401B022801D903200EE78348406A00F03E
:1016D00002000028F2D0012000F0C6FE13E0002036
:1016E0007F490860FFF7ACFC054606E0FFF7A8FC61
:1016F000401B022801D90320F6E67748406A00F033
:1017000002000028F2D1207800F00400042873D1F0
:1017100000277148C06900F0805070B900BF6E4862
:10172000C06940F080506C49C8610846C06900F04B
:101730008050009000BF00BF01276A48006800F495
:101740008070B0B96748006840F4807065490860EF
:10175000FFF776FC054606E0FFF772FC401B6428A5
:1017600001D90320C0E65F48006800F480700028BB
:10177000F2D000BFE068012806D15748006A40F067
:1017800001005549086227E0E06858B95248006AEC
:1017900020F00100504908620846006A20F0040069
:1017A000086219E0E06805280BD14B48006A40F058
:1017B0000400494908620846006A40F001000862D6
:1017C0000AE04548006A20F00100434908620846E3
:1017D000006A20F00400086200BFE068A0B1FFF7D3
:1017E0002FFC054609E0FFF72BFC401B41F2883136
:1017F000884202D9032077E622E03748006A00F0E9
:1018000002000028EFD012E0FFF71AFC054608E0BE
:10181000FFF716FC401B41F28831884201D90320B2
:1018200062E62D48006A00F002000028F0D1012F86
:1018300005D12948C06920F080502749C86100BF00
:10184000E069C8B32448406800F00C00082860D064
:10185000E069022848D1002020490866FFF7F0FB24
:10186000054606E0FFF7ECFB401B022801D90320E8
:101870003AE61948006800F000700028F2D1206AAA
:10188000B0F5803F07D11448406820F40030A168CB
:10189000084311494860D4E9080108430E494968E2
:1018A00021F4741108430C49486001200B49086673
:1018B000FFF7C6FB054607E03DE0FFF7C1FB401B15
:1018C000022801D903200FE60348006800F00070E9
:1018D0000028F2D02FE00000001002400000424239
:1018E0008004424200700040002014490866FFF75F
:1018F000A7FB054606E0FFF7A3FB401B022801D922
:101900000320F1E50E48006800F000700028F2D1D5
:1019100011E0E069012800D1E6E50948466806F4CF
:101920008031206A814204D106F47011606A8142DC
:1019300001D00120D8E50020D6E500000000424299
:101940000010024010B504460CB9012010BD606AB9
:1019500038B96068B0F5827F00D105E00021E1610F
:1019600002E00021216161610021A16294F851002F
:1019700028B9002084F85000204600F043F80220E7
:1019800084F851002068006820F040002168086059
:10199000A08800F48270218901F404410843A189E0
:1019A00001F400610843217C01F002010843217D1C
:1019B00001F001010843218B01F400710843217FEC
:1019C00001F0380108432021095D01F0800108433E
:1019D000218D01F400510843216808600421A069A9
:1019E00001EA1040216848602068C06920F4006066
:1019F0002168C86100206065012084F85100002042
:101A0000A4E7000010B586B00446002002900390C1
:101A1000049005901949206888422DD100BF1848CC
:101A2000806940F48050164988610846806900F456
:101A30008050019000BF00BF00BF0846806940F0A1
:101A4000040088610846806900F00400019000BF2E
:101A500000BFA0200290022003900320059002A95D
:101A60000848FFF73FF940200290002003900490BF
:101A700002A90448FFF736F906B010BD0030014056
:101A800000100240000801402DE9FF5F044688462F
:101A900091461D460E9E012002900020019000BF3D
:101AA00094F85000012803D1022004B0BDE8F09F53
:101AB000012084F8500000BFFFF7C2FA074694F8EF
:101AC00051B060680390AA46BBF1010F0BD0039898
:101AD000B0F5827F04D1A06810B9BBF1040F02D029
:101AE00002200190DBE0B8F1000F03D0B9F1000F44
:101AF00000D015B901200190D1E094F851000428DC
:101B000002D0052084F8510000206065C4F83890A8
:101B1000E587A587C4F83080E586A58620646064E3
:101B20002068006800F04000402805D02068006868
:101B300040F0400021680860E068B0F5006F4AD1CD
:101B4000606810B1BAF1010F09D1206B00882168DB
:101B5000C860206B801C2063E08E401EE08633E06E
:101B60002068806800F00200022810D1E08E70B179
:101B7000029801280BD1206B00882168C860206B77
:101B8000801C2063E08E401EE086002002902068CA
:101B9000806800F0010068B1E08F58B12068C0682B
:101BA000A16B0880A06B801CA063E08F401EE087C3
:101BB00001200290FFF744FAC01BB04204D3701C0E
:101BC00010B1032001906AE0E08E0028C8D1E08FB8
:101BD0000028C5D14AE0606810B1BAF1010F09D1FF
:101BE000206B007821680873206B401C2063E08E16
:101BF000401EE08634E02068806800F00200022881
:101C000010D1E08E70B1029801280BD1206B0078C2
:101C100021680873206B401C2063E08E401EE08624
:101C2000002002902068806800F0010068B1E08F19
:101C300058B12068C068A16B0870A06B401CA063FD
:101C4000E08F401EE08701200290FFF7F9F9C01BEA
:101C5000B04201D3701C00B916B9032001901EE0F8
:101C6000E08E0028C7D1E08F0028C4D13A46314623
:101C7000204601F021FC20B1012001902020606568
:101C80000DE0A06850B900BF002000902068C06837
:101C9000009020688068009000BF00BF00BF012056
:101CA00084F8510000BF002084F8500000BF019864
:101CB000FBE670B504462546681EB0F1807F01D36F
:101CC00001200FE0681E4FF0E02148610F214FF026
:101CD000FF3002F0F9FC00204FF0E021886107207E
:101CE0000861002070BD7047704700002DE9F84F73
:101CF0000446206805682068C668206847694FF078
:101D00000009CA4605F00F09B9F1000F0AD105F024
:101D1000200038B106F0200020B1204602F085FAFC
:101D2000BDE8F88FB9F1000F71D007F0010018B9C4
:101D300006F4907000286AD005F0010030B106F476
:101D4000807018B1206C40F00100206405F00400A0
:101D500030B107F0010018B1206C40F0020020649F
:101D600005F0020030B107F0010018B1206C40F01E
:101D70000400206405F0080048B106F0200010B906
:101D800007F0010018B1206C40F008002064206CBE
:101D900068B305F0200028B106F0200010B12046FD
:101DA00002F043FA20684069C0F3801A206C00F00A
:101DB000080010B9BAF1000F22D0204602F00AFA4A
:101DC0002068406900F04000B0B12068406920F010
:101DD000400021684861A06B50B15648A16B486330
:101DE000A06BFEF7B1FD10B1A06B416B88470CE012
:101DF0002046FFF779FF08E02046FFF775FF04E073
:101E00002046FFF771FF0020206489E7FFE7206B81
:101E1000012878D105F01000002874D006F01000D9
:101E2000002870D000BF002000902068006800905B
:101E300020684068009000BF00BF2068406900F043
:101E40004000C0B3A06B006840681FFA80F8B8F18A
:101E5000000F2FD0A08D40452CDDA4F82E80A06B64
:101E6000806920281FD02068C06820F48070216815
:101E7000C8602068406920F001002168486120683E
:101E8000406920F0400021684861202084F83E002D
:101E9000002020632068C06820F010002168C8601E
:101EA000A06BFEF725FDA08DE28D801A81B2204641
:101EB000FFF719FF34E7FFE7A08DE18D401A1FFA05
:101EC00080F8E08DE8B1B8F1000F1AD02068C06842
:101ED00020F490702168C8602068406920F00100FB
:101EE00021684861202084F83E000020206320689B
:101EF000C06820F010002168C86041462046FFF706
:101F0000F2FE0DE7FFE705F0800030B106F080003B
:101F100018B1204602F09DFA02E705F0400030B10A
:101F200006F0400018B1204602F06FF9F8E600BF55
:101F3000F6E60000C141000810B504460CB90120C6
:101F400010BDA06900B100E000BF94F83D0028B9C1
:101F5000002084F83C00204600F028F8242084F873
:101F60003D002068C06820F400502168C860204609
:101F700002F0CEF92068006920F4904021680861E1
:101F80002068406920F02A00216848612068C06804
:101F900040F400502168C86000202064202084F8AC
:101FA0003D0084F83E000020CAE7000010B586B06E
:101FB0000446002002900390049005901E4920687A
:101FC000884236D100BF1D48806940F480401B49DB
:101FD00088610846806900F48040019000BF00BF1E
:101FE00000BF0846806940F00400886108468069A7
:101FF00000F00400019000BF00BF481502900220CD
:1020000003900320059002A90D48FEF76BFE4FF4E4
:102010008060029000200390049002A90848FEF717
:1020200061FE002211462520FFF7D2F82520FFF798
:10203000BFF806B010BD000000380140001002409B
:102040000008014070B504460D46164694F83E005F
:10205000202816D105B10EB9012070BD00BF94F83B
:102060003C00012801D10220F7E7012084F83C0060
:1020700000BF0020206332462946204602F0C6F900
:10208000EBE70220E9E7000010B50446012205490C
:10209000054805F057F9012202490448FFF7D2FF2D
:1020A00010BD000088020020D4110020F40200209E
:1020B0002DE9F84F04460E46174699464FF0000AA0
:1020C00094F83D0020285AD106B117B90120BDE887
:1020D000F88F00BF94F83C00012801D10220F6E7F8
:1020E000012084F83C0000BF00202064212084F8F7
:1020F0003D00FEF7A5FF8246A784E784A068B0F5FF
:10210000805F04D1206910B90025B04602E0354651
:102110004FF0000800BF002084F83C0000BF1BE027
:102120005346002280212046CDF8009002F0C1F9EC
:1021300008B10320CBE745B9B8F80000C0F30800A8
:102140002168486008F1020803E0287821684860A7
:102150006D1CE08C401EE084E08C0028E0D15346EA
:10216000002240212046CDF8009002F0A2F908B1EB
:102170000320ACE7202084F83D000020A7E70220E0
:10218000A5E7704702F0D4FD044611A2214611A034
:1021900002F0E4FD00BF00BF00BF00BF00BFBFF3FF
:1021A0004F8F00BF00BF00BF1348006800F4E0601D
:1021B00012490843001D1049086000BF00BF00BF5E
:1021C000BFF34F8F00BF00BF00BF00BF00BFFDE7E0
:1021D000000000001B5B33316D3C25753E205B45E4
:1021E0005D202573203A20486172646661756C74C5
:1021F0000D0A1B5B306D00000CED00E00000FA05DD
:1022000000B585B00020019002900390049000BFBB
:102210006248806940F040006049886108468069F2
:1022200000F04000009000BF00BF00BF084680697A
:1022300040F0100088610846806900F010000090AE
:1022400000BF00BF00BF0846806940F004008861FD
:102250000846806900F00400009000BF00BF00BF86
:102260000846806940F0080088610846806900F0EF
:102270000800009000BF00BF00BF0846806940F022
:10228000200088610846806900F02000009000BFAF
:1022900000BF012210214248FEF7CCFE012202219C
:1022A0004048FEF7C7FE00224FF480513D48FEF73C
:1022B000C1FE4FF6FF7001900320029001A93A4839
:1022C000FEF710FD4FF6CF7001900320029001A998
:1022D0003648FEF707FD49F60910019003200290E9
:1022E00001A92F48FEF7FEFC062001900020029075
:1022F0000120039001A92A48FEF7F4FC1020019068
:102300000120029003900320049001A92448FEF7C5
:10231000E9FC10200190264802900020039001A9BA
:102320002248FEF7DFFC202001900020029003905D
:1023300001A91E48FEF7D6FC05200190002002905E
:10234000039001A91748FEF7CDFC41F2020001906D
:102350000120029003900320049001A91148FEF788
:10236000C1FC4EF6F87001900320029001A90D48BF
:10237000FEF7B8FC4FF6FF7001900320029001A910
:102380000C48FEF7AFFC002211460A20FEF720FFA2
:102390000A20FEF70DFF05B000BD0000001002404E
:1023A00000080140000C01400018014000100140ED
:1023B000000011100014014010B5074807490860DB
:1023C0000620486040F6FF7104488160FEF74AFE2F
:1023D00008B1FEF7D8F910BD00300040900200208F
:1023E00010B50E480E4908604FF482704860002115
:1023F0000B488160C160016141614FF400718161EE
:102400001821C16100210162416281620A21C16219
:10241000FFF798FA08B1FEF7B6F910BD0030014099
:102420009C02002010B50B480B4908604FF4E130C6
:102430004860002108488160C16001610C21416150
:1024400000218161C161FFF777FD08B1FEF79BF9BB
:1024500010BD000000380140F402002000BFFEE77C
:1024600000BFFEE77047000008B508490968C908C1
:102470004FF47A72B1FBF2F14143009100BF00BF0B
:1024800000994A1E00920029F9D108BD0C000020D5
:10249000014601207047704770B5044604F0010002
:1024A00050B102F045FC05463EA229463EA002F08E
:1024B00055FC0020FFF7EFFF04F0020002280AD1CC
:1024C00002F036FC054637A2294641A002F046FC40
:1024D0000020FFF7E0FF04F00400042807D102F019
:1024E00027FC05462FA2294643A002F037FC04F042
:1024F0000800082807D102F01BFC054629A229463E
:1025000049A002F02BFC04F01000102807D102F0C3
:102510000FFC054623A229464EA002F01FFC04F042
:102520002000202807D102F003FC05461DA2294601
:1025300053A002F013FC04F04000402807D102F041
:10254000F7FB054617A2294658A002F007FC04F045
:102550008000802807D102F0EBFB054611A2294636
:102560005CA002F0FBFB04F48070B0F5807F07D123
:1025700002F0DEFB05460BA2294660A002F0EEFB4E
:1025800004F40070B0F5007F0AD10020FFF783FF4C
:1025900002F0CEFB054603A2294665A002F0DEFB51
:1025A00070BD0000000000001B5B33326D3C2575E0
:1025B0003E205B495D202573203A2049525120542A
:1025C0005820646F6E650D0A1B5B306D00000000C3
:1025D0001B5B33326D3C25753E205B495D202573C6
:1025E000203A204952515F52585F444F4E450D0AE0
:1025F0001B5B306D000000001B5B33326D3C2575AA
:102600003E205B495D202573203A204952515F509E
:102610005245414D424C455F444554454354454421
:102620000D0A1B5B306D00001B5B33326D3C257562
:102630003E205B495D202573203A204952515F536B
:10264000594E43574F52445F56414C49440D0A1B63
:102650005B306D001B5B33326D3C25753E205B4962
:102660005D202573203A204952515F484541444539
:10267000525F56414C49440D0A1B5B306D0000000F
:102680001B5B33336D3C25753E205B575D20257306
:10269000203A204952515F4845414445525F4552D6
:1026A000524F520D0A1B5B306D0000001B5B333331
:1026B0006D3C25753E205B575D202573203A2049EF
:1026C00052515F4352435F4552524F520D0A1B5BBA
:1026D000306D00001B5B33326D3C25753E205B493D
:1026E0005D202573203A204952515F4341445F44A5
:1026F0004F4E450D0A1B5B306D0000001B5B3332F3
:102700006D3C25753E205B495D202573203A2049AC
:1027100052515F4341445F41435449564954595FC4
:1027200044455445435445440D0A1B5B306D00003D
:102730001B5B33336D3C25753E205B575D20257355
:10274000203A204952515F52585F54585F54494DC6
:10275000454F55540D0A1B5B306D000002460AB907
:102760001F207047002111E00A4850F831009042C4
:102770000AD8084B481C53F83000904204D9481C32
:1027800003EBC0000079ECE7481CC1B21529EBD37C
:1027900000BFFEE740AA000810B500F087FF03283D
:1027A00008D0042802D0052806D101E0022010BD7F
:1027B0000120FCE70320FAE70020F8E70320704738
:1027C00010B504460E4804600E4801F013F80020CE
:1027D00001F03AFB012001F080FA0021084601F0E7
:1027E000D8F80421002001F072FB00231A464FF6AE
:1027F000FF71084601F017F900200349087010BD69
:1028000060010020D52900085D01002038B50024B2
:102810006048007801287DD100205E49087000F0F2
:1028200037FF04464FF6FF7000F01EFF14B120463C
:10283000FFF732FE04F0010050B15748006838B18C
:1028400055480068006818B153490968086880470E
:1028500004F00200022828D104F0400040281FD0D4
:10286000FF214E48FDF7A5FEFF2269464B4800F0C8
:102870007BFF4B4800F024FF47480068A0B1464862
:102880000068806880B1464890F90D3090F90C20BE
:10289000414800689DF8001085684048A84738BD49
:1028A0003D4909680869804700BF04F0400040289E
:1028B0000AD13948006838B137480068006918B152
:1028C000354909680869804704F0800080280CD1E8
:1028D0003148006848B130480068806928B12E4806
:1028E00000688169C4F30020884704F40070B0F5E3
:1028F000007F1FD100F0DAFE04280CD126480068C2
:10290000C0B1254800684068A0B1234909684868FB
:1029100080470FE03BE000F0C9FE05280AD11E48C1
:10292000006838B11C480068C06818B11A490968C5
:10293000C868804704F0040004280AD116480068DB
:1029400038B115480068C06918B113490968C869E9
:10295000804704F0100010280AD10F48006838B1F1
:102960000D480068006A18B10B490968086A804779
:1029700004F0200020280AD10748006838B1064832
:102980000068C06818B104490968C868804700BF7A
:1029900085E700005D01002060010020900C002010
:1029A0007C0C00202DE9F04105460C461746984660
:1029B0000126284600F00AF9204600F0E5F800203C
:1029C00000F03EF8012000F05DFE00F052FB3046C2
:1029D000BDE8F08101200149087070475D010020C9
:1029E00070B50025012000F0F1F8002001F0CCF9CD
:1029F00000240AE0012000F045FE00F0CCFE00F0CB
:102A00000100A0400543601CC4B2202CF2DB00F0A2
:102A100030FB284670BD10B50446204600F066FF26
:102A200010BD70B504460D4616463246294620466E
:102A300000F066FF70BD10B5044600F0ACFE10BD9E
:102A400070B5044600231A464FF6FF71084600F0A1
:102A5000EAFF0020FFF71FFD0F48007801280DD185
:102A600002F066F9054623460CA229460CA002F0A6
:102A700075F96FF07F4001F087F90BE002F058F92B
:102A80000546234605A2294611A002F067F9A001D8
:102A900001F07AF970BD00005C0100200000000028
:102AA0001B5B33326D3C25753E205B495D202573F1
:102AB000203A20526164696F2072782077616974CE
:102AC00020666F72657665720D0A1B5B306D0000C3
:102AD0001B5B33326D3C25753E205B495D202573C1
:102AE000203A20526164696F2072782025756D73D9
:102AF0000D0A1B5B306D000010B5044600231A461A
:102B00004FF6FF71084600F08EFF06480078012856
:102B100004D16FF07F4001F04DF902E0A00101F017
:102B200049F910BD5C01002070B506460C46002333
:102B30001A4640F20121084600F075FF00F00EFE33
:102B4000012802D10F48C47301E00E48047201202D
:102B500000F062FF0120FFF79EFC0421162001F027
:102B6000B6F9084801F032F82146012000F09AFA3F
:102B700005464FF4FA6045432A462146304600F0A8
:102B8000FCFE70BD900D002010B50446204601F0FB
:102B9000ABF810BD70B505460C46012D06D10948AD
:102BA00004700948C47301F011F809E00648C079BF
:102BB000012805D1034804700348047201F006F8A7
:102BC00070BD000050010020900D002010B504469B
:102BD00014B1012C07D000BF002001F067F80020DD
:102BE0000A49487010E0012001F060F80748407879
:102BF00006490978884206D004480078034948709D
:102C0000487800F005F800BF00BF10BD5E0100204D
:102C100010B504460E48047044700120FFF7D6FF3B
:102C2000012C0AD134214FF4E86001F053FA442119
:102C300040F2417001F04EFA09E014214FF4E860CF
:102C400001F048FA242140F2417001F043FA10BD2E
:102C50005E0100202DE9F04F8FB080460D461446EE
:102C60009946DDF874B0DDE91AA7199E78A103C969
:102C7000CDE90C01784921980870012F03D17749DB
:102C80001C98087002E0FF2074490870B8F1000F2A
:102C900003D0B8F1010F77D177E0002001F0E8F818
:102CA00000206F4981F828000846C4620B2180F893
:102CB00034102846FFF752FD0146694880F8351068
:102CC0000020674908704FF6FF7000EAC600488090
:102CD000042163480171182141710021817187F03D
:102CE0000101C1715D4801785D480172BBF1010FBE
:102CF00002D1F221417202E00121594841720021C2
:102D00005748817200F0C5F9554991F8281009B16A
:102D1000012100E000210846FFF758FF5048283005
:102D200000F0AEFE4E4800F051FF0CA801F0A7F8ED
:102D300040F2FF1001F010F9204607F06BF902464F
:102D40000B46CDE900010020464906F0C7FF0022EE
:102D5000454BCDE9020107F0ADF9CDE9060150463A
:102D600007F058F9CDE90401DDE9062307F0A2F9DF
:102D700000223E4BCDE9080107F09CF9CDE90A019C
:102D800007F004F93A4908605EE0002001F070F8AD
:102D90000AF0FF0000F06CFE0120314981F82800A4
:102DA000084680F838403348415D2D4880F8391096
:102DB00080F83A901DB90B2C05D00C2C03D0012DB6
:102DC00006D10C2C04D10121254880F83B1003E0EA
:102DD0000021234880F83B10012021490870084653
:102DE00090F83800052804D0084690F838000628E6
:102DF00008D10C2E03DA0C211948818104E018480F
:102E0000868101E01648868115488773134801784A
:102E10001348C17380F810B020994174014691F8AD
:102E2000281009B1012100E000210846FFF7CEFE7D
:102E30000B48283000F024FE094800F0C7FE4FF68A
:102E4000FF700B49086000BF00BF0FB0BDE8F08FF6
:102E5000C194C100000000005C010020500100206E
:102E6000900D00200000F03F0000204000408F4007
:102E700058010020F0AA000870B504460D46294606
:102E8000204600F0B3FF70BD2DE9FE4F074688468F
:102E900091461C46DDE90FAB0E9E0C9D5FA103C958
:102EA000CDE9010117B1012F4AD14AE000205D4967
:102EB00081F828000846C5620B2180F834102046AE
:102EC000FFF74CFC0146574880F83510C0F83090A9
:102ED0000020544908704FF6FF7000EAC600488091
:102EE00004215048017118214171002181718AF03B
:102EF0000101C171BBF1010F02D1F221417202E067
:102F000001214848417201214648817200F0C1F810
:102F1000444991F8281009B1012100E00021084638
:102F2000FFF754FE3F48283000F0AAFD3D4800F06E
:102F30004DFE01A800F0A3FF40F2FF1001F00CF8D5
:102F400062E00120374981F82800084680F83850AF
:102F50003548015D334880F839100D9980F83A10F2
:102F60001CB90B2D05D00C2D03D0012C06D10C2D36
:102F700004D101212B4880F83B1003E000212948AF
:102F800080F83B1001202749087001F0D1FE009025
:102F9000244890F8383022A224A0009901F0DEFEE7
:102FA000204890F83800052804D01E4890F83800D2
:102FB000062808D10C2E03DA0C211A48818104E07E
:102FC0001848868101E017488681164880F80EA0CF
:102FD0001F4801781348C17380F810B013994174E9
:102FE00000F057F80F4991F8281009B1012100E0CD
:102FF00000210846FFF7EAFD0A48283000F040FDAE
:10300000084800F0E3FD00BF00BF404600F0B4FEFA
:10301000104914980860BDE8FE8F0000C194C100FB
:1030200000000000900D0020F0AA00081B5B333266
:103030006D3C25753E205B495D202573203A207349
:10304000662053462025640D0A1B5B306D0000008E
:10305000500100205401002070B505460C4616466C
:10306000284600F041FE204600F086FE00F028FFD2
:1030700070BD08B5002000909DF8000020F004000D
:10308000001D0090009800F0D1FE022000F0FAFA36
:1030900008BD10B5002000F0D7FE10BD10B500F03F
:1030A00085FC10BD2DE9F34F91B0002010901198D0
:1030B00010B1012853D153E07B49C86A06F0AAFF3A
:1030C000CDE90A01129806F0A5FFCDE9060176497F
:1030D0004A88497902EBE10006F085FFCDE9040159
:1030E0007148C07910B90020034601E000206F4B01
:1030F0000246CDE90203DDE9040106F033FD804616
:10310000DDE9062306F02EFDCDE908016648407A88
:10311000022803D100204FF0804101E00020014649
:10312000804642460B46DDE9080106F01BFD82465B
:1031300000225F4B06F0BEFF0646DDE90A2306F0DB
:10314000CDFD00225B4BCDE90C0106F0B3FFCDE9CC
:103150000E0106F051F8044606F018FF10909DE0AD
:10316000514890F83900001F00EB4000524901EB34
:1031700000114D4890F83800C0F10C0001EBC00080
:1031800003C8CDE90E014849888906F043FF04468B
:1031900000224A4B06F0E6FC0646DDE90E2306F067
:1031A00089FFCDE90C01404991F83A10CA17059101
:1031B00001EB92718A100599A1EB8201081D06F0BE
:1031C00012FFCDE90201384991F8382091F83B10FF
:1031D000002901DD022100E00021511A880006F0DB
:1031E00002FF06460F461299CA002F4991F838107F
:1031F000042303FB11221C322B49097C102303FBFF
:1032000001222949897B012901D1142100E00021F3
:10321000501A06F0E8FE32463B46CDE9000106F0C2
:103220005DFD824603F086F80446DDE9022306F0E0
:1032300041FF80468946002213464046494607F032
:1032400037F802D24046494601E0002001460446D4
:1032500022460B460020164906F084FCCDE90A01FF
:10326000DDE90E23DDE90A0106F024FFCDE90801BE
:10327000DDE90823DDE90C0106F074FCCDE9060167
:103280000F4A104BDDE9060106F06CFC044603F022
:1032900019FB064606F07AFE109000BF00BF10989A
:1032A00013B0BDE8F08F0000900D00200000F03F4B
:1032B0000000204000408F40C0000020000011406E
:1032C0002B8716D9CEF7EF3F70B504460D46294639
:1032D000204600F0FFFE70BD70B504460D46164650
:1032E00032462946204600F0FDFE70BD38B5012269
:1032F0006946002000F00AF80446012C02D19DF82E
:10330000004001E04FF0FF34204638BD2DE9F04188
:1033100004460D461646EFF311808046202080F3C8
:10332000118800BF00BF32462946204600F00AF847
:10333000074608F0FF0080F3118800BF00BF384641
:10334000BDE8F0812DE9F74F82B083461746264845
:10335000009000BF0098007808B901F0EBF800BFBA
:103360000BEB4B012048603000EBC106DDF80C9000
:103370003569D6F80CA04FF00008554517D9B0684C
:10338000441BBC4201D2204600E038460446706827
:1033900028440190224648460199FDF72FF8A044A1
:1033A000A1443F1B2544B068A84200D10025AAEBE8
:1033B0000504BC4201D2204600E0384604465CB118
:1033C000706828440190224648460199FDF716F896
:1033D000A044A1443F1B2544B8F1000F00D0356143
:1033E000404605B0BDE8F08FB40600202DE9F0415D
:1033F00004460D4616460E4F00BF387808B901F056
:1034000099F800BFEFF311800746202080F3118860
:1034100000BF00BF32462946204600F00BF8804628
:10342000F8B280F3118800BF00BF4046BDE8F081CC
:10343000B40600202DE9F047074688461646C246E6
:1034400007EB47011B4800EBC109D9F8140020B174
:10345000012811D0022826D11EE0484601F0A2F82A
:103460000546B54201D2002405E0344632465146B5
:10347000484601F0E0F818E0484601F093F80546A8
:10348000B54201D2284600E0304604462246514665
:10349000484601F0D0F808E032465146484601F06F
:1034A0008FF8044601E0002400BF00BF2046BDE8BD
:1034B000F0870000CC060020F8B504460D461646FD
:1034C0002B46002280212046009600F009F828B102
:1034D000606D40F0200060650320F8BD0020FCE72F
:1034E0002DE9F84F04460D4690461E46DDF828901B
:1034F000FDF7A6FDA0EB0900371AFDF7A1FD8246F6
:103500002C480068C0F3CB307843009045E0701C35
:10351000002842D0FDF794FDA0EB0A00B84200D28B
:10352000A7BB2068406820F0E00021684860606820
:10353000B0F5827F0DD1A068B0F5004F03D0A06830
:10354000B0F5806F05D12068006820F04000216848
:103550000860A06AB0F5005F0DD100BF2068006868
:1035600020F40050216808602068006840F4005092
:103570002168086000BF012084F8510000BF0020CE
:1035800084F8500000BF0320BDE8F88FFFE70098E3
:1035900000B900270098401E0090206880682840ED
:1035A000A84201D1012000E000204045AFD1002019
:1035B000EAE700000C0000207047704770470000E9
:1035C00038B504461B48844206D9E1208DF8000036
:1035D000E9208DF8010026E01748844206D9D7205B
:1035E0008DF80000D8208DF801001CE013488442BB
:1035F00006D9C1208DF80000C5208DF8010012E029
:103600000F48844206D975208DF8000081208DF87E
:10361000010008E00B48844205D96B208DF80000BA
:103620006F208DF8010002226946982000F02AFDE3
:1036300038BD000000E9A43580F8A9328044E52DAA
:10364000000B6B1B40FC541910B500F02FF818B19B
:1036500000F02CF8062803D100F0D4FCFFF7AEFFF1
:10366000642000F097FC10BD38B50446200A8DF8A0
:103670000000E0B28DF8010002226946104600F019
:1036800001FD38BD10B50446204602F07AFD10BD9C
:1036900008B502226946122000F0F4F89DF80100F6
:1036A0009DF8001040EA012008BD000001480078A4
:1036B00070470000640100200146022070470000AE
:1036C00038B5044603226946142000F0DBF800F008
:1036D00045F82070207820B1012814D00F2831D16E
:1036E00031E09DF8000020719DF80100404240103B
:1036F00041B2A1719DF802004042401041B2617197
:103700000021A16026E09DF800004042401041B237
:1037100021739DF80100802804DA9DF801008110D2
:10372000617305E09DF80100A0F580708110617360
:103730009DF802004042401041B2A1730648016862
:10374000216107E000BF14212046FCF732FF0F2063
:10375000207000BF00BF38BD68010020014800781C
:103760007047000065010020F8B505460C46164676
:10377000002000906946204600F01BF82078B042F7
:1037800001DD0120F8BD227829469DF8000000F0F7
:1037900043F80020F6E738B50024012269461520D9
:1037A00000F070F89DF800004042401044B22046FE
:1037B00038BD38B504460D4602226946132000F094
:1037C00061F8FFF7CBFF01280DD140F2047000F043
:1037D0008DF80121B1EBE01F05D140F2027000F03D
:1037E00085F8207002E09DF8000020709DF801002F
:1037F000287038BD10B5044600F0BEF800F002FC99
:10380000002000F021FB012000F006F90120014911
:10381000087010BD640100202DE9F04180460D467E
:1038200016460027FFF710FF00241E222046641CC6
:1038300013490A542046641C01F8008000222046E7
:10384000641C0A5400BF06E0EA5D2046641C0C4973
:103850000A54781C87B2B742F6DB2246084901F1C8
:10386000400002F050FCA21B0548403011183246BF
:103870002846FCF7C3FD642000F08CFBBDE8F08116
:10388000CC0D00202DE9F04106460F4615464FF0BD
:103890000008FFF7D9FE00242046641C12490E548C
:1038A00000222046641C0A5400BF08E00022204683
:1038B000641C0D490A5408F101001FFA80F8A8455C
:1038C000F4DB2246084901F1400002F01CFC621BB7
:1038D0000548403011182A463846FCF78FFD642011
:1038E00000F058FBBDE8F081CC0D002038B504464F
:1038F00001226946204600F003F89DF8000038BD1B
:103900002DE9F04105460F4616464FF00008FFF737
:103910009BFE00241D222046641C16490A542A0AD4
:103920002046641C0A542046641C0D540022204684
:10393000641C0A5400BF08E000222046641C0D49A4
:103940000A5408F101001FFA80F8B045F4DB224662
:10395000084901F1400002F0D6FBA21B05484030A7
:10396000111832463846FCF749FD642000F012FB7E
:10397000BDE8F081CC0D0020704770B505460E46BD
:1039800014463146284600F09FF9204600F082FA9E
:1039900070BD38B505460C468DF800508DF80140D5
:1039A000022269468F2000F06DFB38BD10B5002261
:1039B0001146C52000F066FB07200149087010BDC4
:1039C0006401002038B50446200A8DF80000E0B2FA
:1039D0008DF80100FFF7C2FE30B90222694640F2BD
:1039E000BE6000F07FFB00E000BF00BF38BD38B50F
:1039F0000446200A8DF80000E0B28DF80100FFF7C0
:103A0000ADFE30B90222694640F2BC6000F06AFBAC
:103A100000E000BF00BF38BD01B5012269469D200E
:103A200000F030FB08BD2DE9FC4107460C46154669
:103A30001E46380A8DF80000F8B28DF80100200A01
:103A40008DF80200E0B28DF80300280A8DF804001A
:103A5000E8B28DF80500300A8DF80600F0B28DF856
:103A6000070008226946104600F00CFBBDE8FC8107
:103A700001B501226946A02000F004FB08BD00004A
:103A80002DE9F04786B004464FF00009002004906D
:103A9000059020783F490978884202D0207800F0CC
:103AA00005F9207820B1012859D00F286BD16BE09F
:103AB0004FF0080A606806F0ADFA07463A460B4632
:103AC0000020354906F00AF905460022334B06F07E
:103AD000F1FACDE9020106F059FA81464FEA1940A0
:103AE0008DF810004FEA19208DF8110009F0FF0041
:103AF0008DF81200207B8DF81300607B8DF8140088
:103B00000022274B1046990304F0CCFC05462A46B8
:103B10000B460020204906F0E1F807468846A068D9
:103B200006F078FA3A464346CDE9000106F0D6F8A9
:103B3000CDE9020106F02AFA81464FEA19408DF8D4
:103B400015004FEA19208DF8160009F0FF008DF8D6
:103B50001700524604A98B2000F094FA17E04FF0AA
:103B6000040A207C8DF81000607C8DF81100A07C88
:103B70008DF81200E07C8DF81300524604A98B20CA
:103B800000F080FA03E000BF06B0BDE8F08700BF98
:103B900000BFF9E76501002080847E4100004040BD
:103BA00000003940F8B504460D4616461F468DF80C
:103BB00000408DF801508DF802608DF803700422EA
:103BC0006946952000F05EFAF8BD0000FEB5044697
:103BD0000026002000900190029020783249097858
:103BE000884202D0207800F061F8207820B10128C6
:103BF0003AD00F284DD14DE0607AF12809D14FF627
:103C0000FF70FFF7F4FE48F20500FFF7DBFE022627
:103C10000DE0607AF22809D141F60F50FFF7E7FE78
:103C200041F22100FFF7CEFE062600E0667A092564
:103C30006088000A8DF80000A0788DF801002079D6
:103C40008DF8020060798DF80300A0798DF80400EA
:103C5000E0798DF80500207A8DF806008DF8076070
:103C6000A07A8DF8080016E00625A089000A8DF8D4
:103C70000000207B8DF80100A07B8DF80200E07B26
:103C80008DF80300207C8DF80400607C8DF8050021
:103C900001E000BFFEBD00BF2A4669468C2000F04F
:103CA000F1F900BFF6E700006501002001B59DF8BD
:103CB000000004490870012269468A2000F0E2F9F8
:103CC00008BD00006501002070B504460D462A4677
:103CD0002146002000F0ACF970BD01B50122694613
:103CE000962000F0CFF908BD2DE9FE4F83464FF036
:103CF000000A1E48007828B95846FFF761FC0120E9
:103D00001A49087000221A4B1046990304F0CAFBA6
:103D100002460B46CDE900010020164905F0DEFF02
:103D200006460F46584606F075F9804632463B4631
:103D300005F0D4FF044606F029F982464FEA1A60DE
:103D40008DF808004FEA1A408DF809004FEA1A2052
:103D50008DF80A000AF0FF008DF80B00042202A97A
:103D6000862000F08FF9BDE8FE8F00006C01002076
:103D70000000394080847E4110B50446022120466F
:103D800000F0A5F810BD000038B50446052008492C
:103D90000870200C8DF80000200A8DF80100E0B2B8
:103DA0008DF8020003226946822000F06BF938BDCD
:103DB0006401002038B5044605200B49087096219F
:103DC00040F6AC0000F086F9200C8DF80000200AC7
:103DD0008DF80100E0B28DF80200032269468220CE
:103DE00000F050F938BD0000640100207CB50546A4
:103DF0000C46280C8DF80000280A8DF80100E8B266
:103E00008DF80200200C8DF80300200A8DF80400C4
:103E1000E0B28DF8050006226946942000F032F9E0
:103E20000620014908707CBD6401002001B5FFF740
:103E3000C4FB01226946842000F024F900200149D6
:103E4000087008BD6401002001B501226946802088
:103E500000F018F99DF8000018B901200349087016
:103E600002E002200149087008BD00006401002042
:103E700001B5012269469F2000F004F908BD10B584
:103E80000446082221464FF4D86000F02BF90020A8
:103E900010BD000038B50446042008490870200C05
:103EA0008DF80000200A8DF80100E0B28DF80200C4
:103EB00003226946832000F0E5F838BD6401002044
:103EC00010B500221146D12000F0DCF810BD38B545
:103ED00004460D460020FFF7EFFB01281DD10F2CF3
:103EE00006D101231A4600210620FFF75BFE05E0FC
:103EF00001231A4600210420FFF754FE0E2C01DB9B
:103F00000E2404E014F1030F01DA6FF0020418210B
:103F100040F6E70000F0DEF813E00123002207215D
:103F20000420FFF73FFE162C01DD162404E014F1F7
:103F3000030F01DA6FF00204382140F6E70000F0C9
:103F4000C9F8E0B28DF800008DF8015002226946F0
:103F50008E2000F097F838BD70B504460025FFF7B5
:103F6000FDFB98B94FF4D760FFF7C0FC00F0FE05E9
:103F7000C4F30020054329464FF4D76000F0AAF8A7
:103F8000E1B240F2B96000F0A5F800E000BF00BF68
:103F900070BD000070B5044605E0012002F0F1F8A4
:103FA00002F0C5F8641E02F0F3F808B1002CF4D159
:103FB00002F0EEF848B100F0BBFE054604A2294627
:103FC00004A000F0CBFE002070BD0120FCE7000043
:103FD000000000001B5B33316D3C25753E205B45C6
:103FE0005D202573203A20535831323658207761AE
:103FF00069742062757379206572726F720D0A1B85
:104000005B306D0010B50024C0222046641C0749B7
:104010000A5400222046641C0A54224640310348B8
:1040200002F07BF86420FFF7B5FF10BDCC0D002037
:104030002DE9F04106460F4690460025FFF704FBA8
:1040400000240E222046641C0D490A542046641C9C
:104050000E5400BF06E07A5D2046641C08490A54ED
:10406000681C85B24545F6DB2246054940310448C7
:1040700002F053F86420FFF78DFFBDE8F0810000E7
:10408000CC0D00202DE9F04104460F469046002556
:10409000FFF7DAFA00263046761C0D490C5400BFB3
:1040A00006E07A5D3046761C09490A54681C85B2E0
:1040B0004545F6DB324606494031054802F02DF809
:1040C000842C02D06420FFF765FFBDE8F08100007A
:1040D000CC0D002013B50446012201A9204600F0B2
:1040E00001F81CBD2DE9F04105460F46904600261B
:1040F000FFF7AAFA00240D222046641C0F490A5437
:104100002A0A2046641C0A542046641C0D5400BF31
:1041100006E0BA5D2046641C08490A54701C86B249
:104120004645F6DB224605494031044801F0F5FFDB
:104130006420FFF72FFFBDE8F0810000CC0D0020C8
:1041400010B5FCF7C5FF0248006805F0EBF910BD9B
:104150000000002000B58FB0282105A8FCF729FA3F
:1041600014216846FCF725FA092005904FF48030A9
:10417000069000200790012009900B9002200C90DF
:10418000C1030D914FF4E0110E9105A8FDF7A8F9B8
:1041900008B1FCF7F8FA0F200090022001900020EF
:1041A00002904FF480600390002004900221684642
:1041B000FDF760F808B1FCF7E6FA0FB000BD7047F4
:1041C00070B505466C6A0020E085E0842046FDF766
:1041D0008BFD70BD0168C96821F490710268D160DF
:1041E0000168496921F0010102685161016B0129EF
:1041F00005D10168C96821F010010268D160202151
:1042000080F83E1000210163704710B50446206815
:10421000C06820F040002168C860202084F83D007C
:104220002046FDF7AEFF002010BDF8B5044694F817
:104230003E00222869D1A068B0F5805F0CD12069CA
:1042400050B90025A66A20684068C0F30800308095
:10425000A06A801CA06215E0A56A0026A068B0F5DF
:10426000805F03D0A06828B9206918B92068406829
:10427000287004E02068406800F07F002870A06A81
:10428000401CA062E08D401E80B2E085A8BB206883
:10429000C06820F020002168C8602068C06820F451
:1042A00080702168C8602068406920F001002168A2
:1042B0004861202084F83E00206B01281ED1002098
:1042C00020632068C06820F010002168C860206862
:1042D000006800F0100010280AD100BF00200090F4
:1042E00020680068009020684068009000BF00BF10
:1042F000A18D2046FDF7F7FC03E004E02046FDF722
:10430000C3FE0020F8BD0020FCE70220FAE7000011
:1043100070B504462168096921F44051E2681143EF
:10432000226811612269A1681143626941EA0205AC
:104330002168C96841F20C62914329432268D16027
:104340002168496921F44071A269114322685161D1
:104350002D4A2168914202D1FDF768F801E0FDF78E
:1043600055F800EBC00101EB001162689200B1FB4F
:10437000F2F100EBC00202EB001263689B00B2FB9B
:10438000F3F26423B2FBF3F202EBC20303EB02127B
:10439000A1EB8201322202EB01116422B1FBF2F1A6
:1043A00001F0F00100EBC00202EB001263689B0019
:1043B000B2FBF3F26423B2FBF3F201EB021200EB67
:1043C000C00101EB001163689B00B1FBF3F100EB4E
:1043D000C00303EB00136668B600B3FBF6F3642674
:1043E000B3FBF6F303EBC30606EB0313A1EB830168
:1043F000322303EB01116423B1FBF3F101F00F0150
:1044000011442268916070BD0038014010B5034628
:1044100099629A85DA8500201864222083F83E008C
:1044200000BF002083F83C0000BF1868C06840F45B
:1044300080701C68E0601868406940F001001C68EA
:1044400060611868C06840F020001C68E0600020CF
:1044500010BD014691F83D00212828D18868B0F5AB
:10446000805F0BD1086948B90A6A1088C0F3080058
:104470000B685860086A801C086205E00B6A581CCB
:10448000086218780B685860C88C401E80B2C884D7
:1044900058B90868C06820F080000B68D8600868C8
:1044A000C06840F040000B68D860002070470220D0
:1044B000FCE72DE9F04104460D4617469846069E56
:1044C00021E0701CF8B12EB1FCF7BAFDA0EB08009A
:1044D000B04218D92068C06820F4D0702168C86044
:1044E0002068406920F0010021684861202084F89C
:1044F0003D0084F83E0000BF002084F83C0000BF6F
:104500000320BDE8F081206800682840A84201D15E
:10451000012000E00020B842D3D00020F1E70000E5
:1045200010B50248FDF7E2FB10BD0000F4020020C8
:1045300000BFFEE770B5144CA8212046FCF739F8FF
:1045400003202061606111A0A0611349E1614FF473
:10455000806121620021A1626162E1620BA020669C
:104560000E4961664021A16600212167E16661670D
:10457000002505E0C5F10F000949085C60556D1C78
:10458000102DF7D370BD0000B40600205465726D85
:10459000696E616C000000005C0700205C0B00206D
:1045A00050A9000810B501460A69CB689A4204D8A0
:1045B0008C68641EE41AA01801E0D41A601E10BDB5
:1045C0002DE9F05F0446894617464FF0000AE5687A
:1045D00000BFD4F81080A84503D9A8EB0500461EFB
:1045E00004E0A5EB0800401CA1680E1AA068401B5F
:1045F000B04201D9304601E0A068401B0646BE42E9
:1046000001D2304600E038460646606800EB050BF4
:10461000324649465846FBF7F1FEB244B144BF1B4F
:104620003544A068A84200D10025E560002FD0D114
:104630005046BDE8F09F2DE9F047044689461546EF
:10464000E668A068871BAF420AD9606800EB060ADB
:104650002A4649465046FBF7D1FE7019E06014E047
:10466000B846606800EB060A424649465046FBF7EA
:10467000C5FEA5EB0708D4F804A009EB07014246E4
:104680005046FBF7BBFEC4F80C80BDE8F08749003C
:1046900050EAC12018BF04204A0D18BF40F00100A5
:1046A00040F2FF72B2EB515F08BF40F002000128F8
:1046B00008BF05207047000002480068C0F30220D0
:1046C000704700000CED00E010B5002804DB0A077D
:1046D000130E054A135406E00A07140E034A00F0AD
:1046E0000F031B1FD45410BD00E400E018ED00E0E0
:1046F00000BF00BF00BFBFF34F8F00BF00BF00BFB0
:104700000948006800F4E06008490843001D0649B4
:10471000086000BF00BF00BFBFF34F8F00BF00BFE6
:1047200000BF00BF00BFFDE70CED00E00000FA0590
:104730002DE9F0414F1E00EBC7010446D1E900010D
:1047400015461E4637F006020DD02A46334605F0C0
:10475000B1FC7F1E04EBC703D3E9002305F002FA86
:1047600037F00602F1D1022F25D0042F13D0062FE7
:1047700018BFBDE8F0812A46334605F09BFCD4E91A
:104780000A2305F0EFF92A46334605F093FCD4E9F5
:10479000082305F0E7F92A46334605F08BFCD4E9F7
:1047A000062305F0DFF92A46334605F083FCD4E9F9
:1047B000042305F0D7F92A46334605F07BFCD4E9FB
:1047C000022305F0CFF92A46334605F073FCD4E9FD
:1047D0000023BDE8F04105F0C5B9000000221346F2
:1047E0001046014905F07ABA0000F03F05F0BAB969
:1047F000002213461046114605F070BA40F201320D
:1048000000204FF0E04105F0F1BF0000024A002017
:10481000110705F0EBBF000001FDFFFF10B50246D8
:10482000002302B109B9002010BD002909DD00E014
:104830005B1C12F8014B54B1081EA1F10101F7D124
:1048400005E000E05B1C12F8014B002CFAD1184681
:10485000EAE7000070B5054600240DB9002070BDE0
:104860002879022801DD0020F9E714212248FBF70E
:10487000A0FE142229462048FBF747FE1E48006888
:104880001E490860002430E01C48006800EB04105A
:1048900000681B4941F824001748C06838B1174A1E
:1048A000126802EB04121068134AD168884700208E
:1048B0001249096801EB041108731049096801EBFA
:1048C000041148730D48006800EB0410007A0B498E
:1048D000096801EB041108710848006800EB041036
:1048E000007A08490855601CC4B203480079A04208
:1048F000CADC0120B3E70000900E0020AC010020CC
:10490000A40100207001002029B1034B43F82010BE
:10491000024B43F820207047500E0020700E0020FC
:104920002DE9F843804600240027DA48006808B9DA
:10493000BDE8F883D8480079022800DDF8E70024B4
:10494000A1E1D64A52F82400D34A1169884708B138
:10495000012000E000200746CE48006800EB04106C
:10496000007B3844CB49096801EB04110873C9483E
:10497000006800EB0410407B401CC649096801EB4D
:1049800004114873C348006800EB0410407B0528FD
:1049900000DA76E1BF48006800EB0410007B0528D0
:1049A0000DD10420BB49096801EB041108730520EF
:1049B000B849096801EB0411487301271FE0B548A5
:1049C000006800EB0410007B68B90420B149096855
:1049D00001EB041108730520AE49096801EB0411CD
:1049E000487300270BE00020AA49096801EB041175
:1049F0004873A849096801EB0411087341E1A8480C
:104A00000755005DA349096801EB04110979484085
:104A100020B3A348005D9F49096801EB0411896830
:104A200088420DD00120A0409E49096808439D4955
:104A300008609949886880479B4941F824000DE047
:104A40000120A0409949096808439849086000205E
:104A5000954941F82400964941F824009048005DAA
:104A60008C49096801EB041108718B4988688047FB
:104A700005468B48005D8749096801EB0411896888
:104A8000884233D0884850F82400281A41F28831EF
:104A900088422BD387480068E04000F00100A0B1B5
:104AA000834850F82400281AB0F5FA7F1ED37A49BB
:104AB000886880477E4941F824000120A0407E4953
:104AC000096808437C49086010E0794840F82450A0
:104AD0000120A04077490968084376490860012011
:104AE000A040764909688143744801606D480068B8
:104AF000E04000F00100002854D0714850F8240034
:104B000010B96F4840F824506D4850F82400281A16
:104B1000B0F5FA6F03D300206A49085527E06948C9
:104B2000005D401C6749085508260846005D0128BD
:104B300001D1042607E06348005D022803D1052661
:104B4000002060490855082E10D05F4850F8260014
:104B500060B15E4951F826204E49096801EB041105
:104B60000868594951F826303146984700BF4A49EC
:104B700088688047524941F824005348006850B182
:104B800052490A684349096801EB041108684E4913
:104B90000B68002198470120A040424909688143E1
:104BA0004048016041480068E04000F00100D8B191
:104BB0004548406850B145494A683649096801EBA3
:104BC0000411086840494B68012198470120A04022
:104BD000364909688143354801600120A0403549C4
:104BE000096881433348016034480068E04000F0C0
:104BF000010010BB2F480068E04000F00100E0B168
:104C00000120A0402D49096808432C490860224929
:104C100088688047244951F82410401A00902A4897
:104C2000806848B11B49096801EB041108682649EE
:104C30006A468B680221984700BF1F480068E04021
:104C400000F00100E0B1144988688047164951F826
:104C50002410401A00901C48C06848B10D490968EA
:104C600001EB0411086818496A46CB68032198478C
:104C70000120A0401049096881430F48016000BF2E
:104C800000BF601CC4B204480079A0423FF759AE8F
:104C900000BF4DE6AC010020900E0020A4010020D2
:104CA000700100207401002088010020780100209C
:104CB000900100207C010020840100208001002060
:104CC00098010020A0010020500E0020700E00204E
:104CD00010B50446204600F0C9FF10BD38B50546A2
:104CE0000F4805600F4800F0BBFF012000900C4802
:104CF000006842680A4800680BA30168094800F090
:104D00006BFF002405E0094901EB041000F08EFF61
:104D1000641C0A2CF7D3FF2000F0A8FF38BD000068
:104D200010000020580300203E00000090A800085A
:104D300010B50448006818B102480068804710BDEB
:104D40000020FCE7C4010020024A1060024A116002
:104D500070470000C4010020C80100200FB42DE9F5
:104D6000FF5FB8480078052803D1BDE8FF1F5DF854
:104D700014FBB548006828B14FF0FF310120B24A5A
:104D80001268904700250FA801904AE10E9800781C
:104D9000252805D06D1C0E99087800F05BF93DE1DF
:104DA000002400BF0E98401C0E900E9800782B280F
:104DB0000DD004DC20280DD0232814D10DE02D289F
:104DC00002D030280FD10BE044F01004EAE744F0A1
:104DD0000404E7E744F00804E4E744F02004E1E7D2
:104DE00044F00104DEE74FF0FF360E9800783028DB
:104DF00008DB0E980078392804DC0EA801F0D0FCFE
:104E000006460EE00E9800782A280AD10E98401C1B
:104E10000E90019840C80190002E02DA764244F0CC
:104E200010044FF0FF390E9800782E281FD10E98ED
:104E3000401C0E900E980078302808DB0E98007801
:104E4000392804DC0EA801F0ABFC81460AE00E987C
:104E500000782A2806D10E98401C0E90019850F830
:104E6000049B0190B9F1000F01DA4FF000094FF0F7
:104E7000FF3B0E9800786C2803D00E9800784C28E1
:104E800005D10E9890F800B00E98401C0E900A20A4
:104E900002900E9800786F2879D00CDC632813D02C
:104EA00004DC412870D058287FD173E0642877D083
:104EB00069287AD175E0702852D0732820D07528DF
:104EC00072D0782871D168E004F0100038B903E09E
:104ED000202000F0BFF86D1C701E061EF8DC019942
:104EE00011F8042BD0B2019100F0B4F86D1C03E06E
:104EF000202000F0AFF86D1C701E061EF8DC8DE05F
:104F0000019850F8048B0190B8F1000F01D10FF215
:104F10003C1849464046FFF781FC074604F0100064
:104F200040B903E0202000F095F86D1C3046761E55
:104F3000B842F7DC4FF0000A06E018F8010B00F069
:104F400089F86D1C0AF1010ABA45F6DB03E020205E
:104F500000F080F86D1C3046761EB842F7DC5DE04C
:104F6000701C10B9082644F001040094019901C98D
:104F70004B4632460191102101F04AFB05444DE0B9
:104F800005E001E011E00BE044F0400400BF082020
:104F900002901FE044F0400400BF1020029019E08E
:104FA00000BF44F0020400BF14E00E9800782528EA
:104FB00003D0252000F04EF86D1C0E98007828B123
:104FC0000E99087800F046F86D1C02E00E98401E1D
:104FD0000E9023E000BFBBF16C0F06D10198006872
:104FE00003900198001D01900FE004F0020030B121
:104FF0000198006803900198001D019005E0019858
:10500000006803900198001D01904B4632460094C1
:10501000DDE9021001F0FCFA054400BF0E98401CC7
:105020000E900E98007800287FF4B0AE01900648EC
:10503000006820B100210846034A1268904700BF6B
:1050400093E60000B4010020C80100203C4E554CFE
:105050004C3E000031B500240BE0074850F8240016
:1050600028B1054850F82420012168469047601C6B
:10507000C4B2022CF1DB38BDB801002070B5044683
:105080001548006828B14FF0FF310120124A12681C
:1050900090470025B4B1002007E0104951F82010D6
:1050A000A14200D10125411CC8B20228F5DB4DB94F
:1050B0000A480B49097840F8214009480078401C0B
:1050C000074908700448006820B100210846024AD8
:1050D0001268904770BD0000C8010020B801002090
:1050E000C001002070B50446FBF7B0FF0546C4F8C8
:1050F0000250FBF7B1FF0546280A2070657070BDAD
:105100000349C878AA2801D1012070470020FCE794
:1051100000F8070830B104490A6802604A68426032
:10512000896881607047000000F80708F0B585B015
:105130000446002C30D000200490FBF7A7FD00BFF0
:1051400034201649C86000BF002000901448029027
:1051500001200190039004A96846FBF7DDFC00BF25
:1051600034200E49C86000BF0D4D274600260EE0D2
:1051700057F826C06246002329460220FBF72EFD81
:105180002D1D00BF34200549C86000BF761C032ECA
:10519000EED3FBF719FD00BF05B0F0BD00200240C3
:1051A00000F807082DE9F04180460D4616461F46D7
:1051B000404601F069FBC4B2FF2C01D1BDE8F0818B
:1051C000064800EB04108560044800EB041086805C
:1051D000024800EB0410C78000BFEFE7A40E0020D8
:1051E00010B500246548407E00B910BD0024BEE023
:1051F000634800EB0410007800B9B6E0604800EBAB
:105200000410C06800286ED05D4800EB04104078A0
:105210005B4901EB041189784840002843D0584885
:1052200000EB04104078564901EB04118870544893
:1052300000EB04104078D8B15048C06898B34F488C
:10524000006980B34D48006968B34C4A526902EB6B
:1052500044025078494A1169884720BB4749496947
:1052600001EB440148784549CA68012190471AE09A
:105270004248C068B8B141480069A0B13F480069E0
:1052800088B13E4A526902EB440250783B4A1169A8
:10529000884740B13949496901EB440148783749A9
:1052A000CA6800219047364800EB04104078D8B116
:1052B000324908688047324901EB0411C968401A35
:1052C0002F4901EB04118988884238D32B4908689B
:1052D00080472B4901EB0411C8600020284901EBED
:1052E000041148702BE023E02449086880472449D2
:1052F00001EB0411C968401A214901EB0411C98866
:1053000088421CD31D49086880471D4901EB0411E0
:10531000C86001201A4901EB04114870184800EBDD
:1053200004108068401E164901EB0411886006E0F5
:10533000124908688047124901EB0411C8601048FF
:1053400000EB0410806878B900200D4901EB0411CE
:1053500008700A48406838B1084A526902EB4402B2
:105360005078064A5168884700BF601CC4B20348A1
:10537000007EA0423FF73CAF00BF36E7241000207C
:10538000A40E002070B50546284601F07DFAC4B28F
:10539000FF2C01D1002070BD024800EB0410806892
:1053A000F9E70000A40E002010B504461C22214697
:1053B0000548FBF7AAF80448007E182802DD1820EB
:1053C0000149087610BD00002410002070B5054684
:1053D000284601F059FAC4B2FF2C00D170BD00205C
:1053E000134901EB04118860114901EB0411888015
:1053F0000F4901EB0411C8800D4901EB0411C8608D
:105400000B4901EB04110870094901EB04114870C4
:10541000074901EB04118870064801692046884756
:1054200020B104480021C2682046904700BFD5E75C
:10543000A40E00202410002001460D2900DD0D21BE
:10544000014850F8210070475000002030B58FB05F
:1054500004462848807920F07F0126488171502237
:1054600021462548FBF751F854F8200F0490606856
:105470000590224806902248079054F8100C03909B
:1054800054F8140C0290A0680190207B8DF8200045
:10549000207F8DF83000A0690B9020690990207D55
:1054A0008DF82800607F8DF83100A07F8DF83200E4
:1054B00094F820008DF83300E06A0D9094F82400F1
:1054C0008DF83800FFF734FC05460EA229460EA0E1
:1054D000FFF744FC01A801F0B3FB208D203C0549F7
:1054E0008880134803F0ACFF124803F0A9FF0FB007
:1054F00030BD0000EC0B00209C0B00203D79000823
:1055000029790008000000001B5B33326D3C2575D3
:105510003E205B495D202573203A20696E69742026
:105520006C6F72612068616C6C0D0A1B5B306D00E2
:10553000300000203800002010B500240948007811
:1055400068B10948007850B101F094FB38B901F016
:105550008BFB20B101F046FD08B1012400E00024DE
:10556000204610BD280000202900002070B5054607
:105570001748007810B101F06FFB48B1FFF7D8FB76
:10558000044614A2214614A0FFF7E8FB002070BDDA
:1055900001F06AFB38B9FFF7CBFB04460DA22146A8
:1055A00018A0FFF7DBFBFFF7C3FB0446224890F887
:1055B000283008A2214621A0FFF7D0FB1E48C26A6E
:1055C00090F828102B4B001D01F0FBFDDFE70000D9
:1055D00028000020000000001B5B33316D3C257566
:1055E0003E205B455D202573203A204C6F72612080
:1055F000727820697320627573790D0A1B5B306DB8
:10560000000000001B5B33316D3C25753E205B457F
:105610005D202573203A204C6F72612063686970A9
:10562000206973206E6F74206465746563746564AB
:105630000D0A1B5B306D0000EC0B00201B5B33324E
:105640006D3C25753E205B495D202573203A205234
:10565000652D73656E64696E67206C6F7261207072
:1056600061636B65742073697A652025640D0A1B7C
:105670005B306D00557100082DE9FC5F04460E4655
:1056800017461D46DDF830804FF0000904B993E05D
:10569000E07810B1606800B98EE04948007810B138
:1056A0004848007840B9FFF743FB824646A251467E
:1056B00046A0FFF753FB7FE001F0DCFA98B101F060
:1056C000BBFA82464C49886880478346FFF730FB27
:1056D00001909AF800005B463BA2009047A0019918
:1056E000FFF73CFB68E001F0BFFA68B942498868FF
:1056F00080478246FFF71CFB8346534632A2594639
:105700004EA0FFF72BFB57E0E078202809DDFFF7DC
:105710000FFB8246E3782CA2514655A0FFF71EFBF3
:105720004AE0A2786148C17962F3C601C17121786B
:10573000807961F306005D49887161785B48C088B3
:1057400061F3CA105949C880E27858480830616846
:10575000FAF754FE5548C562E078C0F12000C0F168
:105760002400C1B2514880F82810FFF7E1FA8246C0
:105770004E48807900F07F0000904C4890F8283027
:1057800011A251464A48FFF7E9FA484890F8281014
:10579000484B2A46001D01F014FD002009490870FD
:1057A000454803F04DFE454807604048C0F830804A
:1057B00006604FF0010900BF4846BDE8FC9F0000AD
:1057C0002800002029000020000000001B5B33326D
:1057D0006D3C25753E205B495D202573203A204CA9
:1057E0006F72612054585258206973206275737922
:1057F0000D0A1B5B306D00009C0B00201B5B3332DD
:105800006D3C25753E205B495D202573203A204C78
:105810006F5261207061636B6574206973207472CC
:10582000616E736D697474696E672C207374617432
:10583000652025640D0A1B5B306D00001B5B333156
:105840006D3C25753E205B455D202573203A204C3C
:105850006F72612063686970206973206E6F7420B5
:1058600064657465637465640D0A1B5B306D0000CC
:105870001B5B33316D3C25753E205B455D202573F8
:10588000203A204C6F7261207061636B6574202533
:10589000642062797465732C2077617320746F6F54
:1058A000206C6F6E670D0A1B5B306D00EC0B0020E7
:1058B000A0AE000855710008400000202C00002018
:1058C00038B55448007898B15348007880B15348AF
:1058D0004169534803F0EEFD50B1FFF729FA044641
:1058E00050A2214650A0FFF739FA0120594908700B
:1058F0005848007890B1FFF71BFA044649A22146A8
:1059000055A0FFF72BFA01F089FB454803F016FE7E
:10591000434803F095FD00204E4908703E4800784A
:10592000002859D101F05EFB002855D05648C06AC6
:10593000564A12688118564803F0BCFD00284BD027
:1059400001F092F950B9FFF7F3F9044635A2214668
:1059500050A0FFF703FA0020594908605848016831
:105960000068401E564A1060002924DD2B498868D3
:10597000804740F2E731B0FBF1F201FB12004349EE
:105980000860FFF7D5F904463F48C06A3F490968F7
:10599000084400904A4823A22146036849A0FFF723
:1059A000DDF93948FFF7E2FD00201B49087038484F
:1059B00003F046FD10E0012017490870344803F059
:1059C000BDFD00203E4908602F48006820B12E48E8
:1059D00000210268012090470E480078B0B90F48B6
:1059E000C169484803F066FD80B101F035F968B936
:1059F000FFF79EF904460BA2214643A0FFF7AEF93C
:105A00000120044908703F4803F098FD01F09CFB19
:105A100038BD000028000020290000209C0B002039
:105A200030000020000000001B5B33316D3C257509
:105A30003E205B455D202573203A204175746F2020
:105A40007265626F6F74206D6F64756C650D0A1BF3
:105A50005B306D00480000201B5B33316D3C2575C9
:105A60003E205B455D202573203A205265736574A6
:105A7000696E67206C6F7261206D6F64756C650D67
:105A80000A1B5B306D000000EC0B00204C00002076
:105A9000400000201B5B33316D3C25753E205B458B
:105AA0005D202573203A204C6F5241206368697055
:105AB000206572726F720D0A1B5B306D0000000072
:105AC0002C0000201B5B33316D3C25753E205B456F
:105AD0005D202573203A204C4F52412054582072AB
